:100000000C9423080C946A080C946A080C946A08EF
:100010000C946A080C946A080C946A080C946A0898
:100020000C946A080C946A080C9409310C94DB3126
:100030000C941F280C946A080C946A080C946A08A3
:100040000C946A080C946A080C946A080C946A0868
:100050000C946A080C9478280C946A080C946A082A
:100060000C946A080C946A080C946A080C946A0848
:100070000C946A080C946A080C946A080C946A0838
:100080000C946A080C946A080C946A080C946A0828
:100090000C946A080C946A080C946A080C946A0818
:1000A0000C946A080C946A080C946A08A215A515A9
:1000B000AD15B215B715BC15C115C615CB15D015A4
:1000C000D515DA15DC15DF15E215E515E815EB1584
:1000D000ED15F215481D481D7A1D7A1DC71DFB1E22
:1000E000FB1EFB1EE51D7A1E8B1E8B1EEB1EFB1ED0
:1000F000FB1EF41E971F971FA91FA91FA01FA91F52
:10010000A91FA91F971F971FA51FA91FA91FA51FDB
:10011000CE2ABC2AD52A1E29AE2BAE2BB92AAE2B4D
:10012000AE2B022BAE2B162B8E2BAE2BAE2BAE2B6B
:10013000AE2B4A2BAE2BAE2B332BAE2BEE2AAE2B97
:10014000AE2BA82BA82BA82BA82BA82BA82BA82B11
:10015000A82BA82BAA2BAE2BCE2AB12AAE2BAE2BC6
:10016000AE2BAE2BAE2BAE2BAE2BAE2BAE2BAE2BC7
:10017000AA2BAE2BAE2BB92AAE2BA62BA62BA62BC9
:10018000A62BA62BA62BA62BA62BA62BAA2B48323A
:100190006F3267336F326733BB32DE3267333533EA
:1001A000443329001E001F002000210022002300EC
:1001B00024002500260027002D002E0031002B00F2
:1001C00014001A000800150017001C0018000C008D
:1001D000120013002F0030002A003900040016001E
:1001E000070009000A000B000D000E000F0033008D
:1001F000340000002800E10000001D001B00060084
:10020000190005001100100036003700380000000A
:10021000E100E000E300E200000000002C0000002C
:100220000000000035000151E2006500E40001001B
:100230003A003B003C003D003E003F0040004100D2
:10024000420043004400450001000100BE00BD0023
:100250000100010001000100010001000100010096
:10026000010001000100025CAA00A900A800010031
:100270000100010001000100010001000100000077
:10028000010001000000BF5CC05CC15C0100010016
:10029000010001004A004D004B004E0052000B5C73
:1002A000135C0A5C00000000010000000000000078
:1002B000145C0000500051004F0044454255473A3D
:1002C0002064697361626C65642E0A00444542557E
:1002D000473A20656E61626C65642E0A000A00254B
:1002E00030313662003A200025303258000A722F31
:1002F0006320303132333435363738394142434464
:1003000045460A007267626C696768742074696D9B
:1003100065722064697361626C652E0A007267629F
:100320006C696768742074696D657220656E6162BE
:100330006C65642E0A007267626C6967687420736A
:10034000657420687376205B4E4F454550524F4D83
:100350005D3A2025752C25752C25750A007267627B
:100360006C696768742073657420687376205B45D8
:100370004550524F4D5D3A2025752C25752C25751D
:100380000A007267626C69676874207261696E62E4
:100390006F7720736574206873763A2025642C2566
:1003A000642C25642C25750A007267626C69676885
:1003B000742064697361626C65205B454550524FDF
:1003C0004D5D3A207267626C696768745F636F6E37
:1003D0006669672E656E61626C65203D2025750A31
:1003E000007267626C6967687420656E61626C6533
:1003F000205B454550524F4D5D3A207267626C69F3
:100400006768745F636F6E6669672E656E61626CA4
:1004100065203D2025750A007267626C6967687403
:1004200020746F67676C65205B454550524F4D5D8A
:100430003A207267626C696768745F636F6E6669A1
:10044000672E656E61626C65203D2025750A00721D
:1004500067626C69676874206D6F6465205B4E4FDE
:10046000454550524F4D5D3A2025750A007267622E
:100470006C69676874206D6F6465205B45455052F8
:100480004F4D5D3A2025750A007267626C69676896
:10049000745F696E6974207267626C696768745F03
:1004A000636F6E6669672E6D6F6465203D20302E28
:1004B0002057726974652064656661756C74207676
:1004C000616C75657320746F20454550524F4D2EF9
:1004D0000A007267626C696768745F696E6974208C
:1004E0006565636F6E666967206973206E6F74203F
:1004F000656E61626C65642E0A007267626C696782
:1005000068745F696E6974207374617274210A0083
:100510007267626C696768745F696E697420636191
:100520006C6C65642E0A007267626C696768745F40
:10053000636F6E6669672E7370656564203D202564
:10054000640A007267626C696768745F636F6E66E5
:1005500069672E76616C203D2025640A007267620F
:100560006C696768745F636F6E6669672E73617428
:10057000203D2025640A007267626C696768745FB9
:10058000636F6E6669672E687565203D2025640A75
:10059000007267686C696768745F636F6E6669672D
:1005A0002E6D6F6465203D2025640A007267626CC1
:1005B000696768745F636F6E6669672E656E6162F6
:1005C0006C65203D2025640A007267626C6967686B
:1005D000745F636F6E66696720454550524F4D3AB0
:1005E0000A0032190A00047F3F1F64321464321477
:1005F000783C1E1E140A052223252628292A2C2D84
:100600002F3032333536383A3B3D3E404243454742
:10061000494A4C4E5051535557595A5C5E6062647A
:100620006668696B6D6F71737577797B7D7F818388
:100630008587898A8C8E90929496989A9C9E9FA189
:10064000A3A5A7A8AAACAEAFB1B3B4B6B8B9BBBCAA
:10065000BEBFC1C2C3C5C6C7C9CACBCCCDCED0D11F
:10066000D2D2D3D4D5D6D7D7D8D9D9DADADBDBDB17
:10067000DCDCDCDCDCDDDDDDDDDCDCDCDCDCDBDBB8
:10068000DBDADAD9D9D8D7D7D6D5D4D3D2D2D1D00C
:10069000CECDCCCBCAC9C7C6C5C3C2C1BFBEBCBB09
:1006A000B9B8B6B4B3B1AFAEACAAA8A7A5A3A19F81
:1006B0009E9C9A98969492908E8C8A898785838145
:1006C0007F7D7B79777573716F6D6B696866646226
:1006D000605E5C5A5957555351504E4C4A494745F4
:1006E0004342403E3D3B3A3836353332302F2D2C95
:1006F0002A292826252322FFAA7F55406261636BA1
:100700006C6967687420737465703A2025750A00F7
:100710006261636B6C696768742064697361626CA1
:10072000650A006261636B6C6967687420656E615D
:10073000626C650A006261636B6C6967687420743F
:100740006F67676C653A2025750A006261636B6CA0
:10075000696768742064656372656173653A202512
:10076000750A006261636B6C6967687420696E6307
:1007700072656173653A2025750A00000101010167
:10078000010101010102020202020202020203034C
:10079000030303030303040404040404040505051C
:1007A00005050606060606070707070708080808DE
:1007B000090909090A0A0A0B0B0B0C0C0C0D0D0D8B
:1007C0000E0E0E0F0F0F1010111111121213131421
:1007D00014151516161717181819191A1A1B1B1C99
:1007E0001D1D1E1E1F2020212222232424252626F3
:1007F000272829292A2B2C2D2D2E2F303132323328
:100800003435363738393A3B3C3D3E3F4041424330
:100810004445464748494A4C4D4E4F505153545514
:100820005658595A5B5D5E5F616264656668696BC4
:100830006C6D6F7072737577787A7B7D7E80828342
:100840008587888A8C8E8F91939596989A9C9EA086
:10085000A2A3A5A7A9ABADAFB1B3B5B7BABCBEC093
:10086000C2C4C6C9CBCDCFD1D4D6D8DBDDDFE2E45C
:10087000E7E9EBEEF0F3F5F8FAFDFF0A0025303278
:100880005820006B6579626F6172645F7265706F8A
:1008900072743A20000A0025303258006B65796284
:1008A0006F6172645F7365745F6C65643A200064A5
:1008B000656C5F6B65795F6269743A2063616E276E
:1008C000742064656C3A20253032580A00616464F3
:1008D0005F6B65795F6269743A2063616E2774208B
:1008E0006164643A20253032580A003F00433E20BC
:1008F000004C25640A0074696D65725F72656164FD
:10090000333228293A202530346C580A006B657937
:100910006D61705F636F6E6669672E6E6B726F3AA2
:100920002025580A006B6579626F6172645F6964A3
:100930006C653A2025580A006B6579626F617264B4
:100940005F70726F746F636F6C3A2025580A00688D
:100950006F73745F6B6579626F6172645F6C6564FD
:100960007328293A2025580A000A092D205374615A
:10097000747573202D0A004743433A20352E342ED8
:1009800030204156522D4C4942433A20322E302ECF
:1009900030204156525F415243483A2061767235C9
:1009A0000A004F5054494F4E533A204C554641206F
:1009B00045585452414B455920434F4E534F4C4597
:1009C00020434F4D4D414E44204E4B524F2034302A
:1009D00039360A004255494C443A202230306436B8
:1009E000326422202831343A33383A3137204A757C
:1009F0006C2031312032303230290A005649443AD5
:100A00002030783433333528534154414E29205017
:100A100049443A2030783030303228474836302048
:100A2000536174616E29205645523A203078303037
:100A300030330A00444553433A20363025206B6555
:100A400079626F6172642077697468206261636B98
:100A50006C6967687420616E642057533238313294
:100A600020737570706F72740A000A092D20566524
:100A70007273696F6E202D0A000A092D20436F6E74
:100A8000736F6C65202D0A4553432F713A097175B8
:100A900069740A000A092D204D61676963202D0AD7
:100AA000443A094465627567204D657373616765F3
:100AB00020546F67676C650A583A094D6174726912
:100AC00078204465627567204D6F646520546F67B8
:100AD000676C65202D2053686F77206B6579707285
:100AE000657373657320696E206D61747269782017
:100AF000677269640A4B3A094B6579626F61726487
:100B000020446562756720546F67676C65202D20EF
:100B100053686F77206B65797072657373207265A7
:100B2000706F72740A4D3A094465627567204D6FA3
:100B300075736520546F67676C650A563A09566588
:100B40007273696F6E0A533A095374617475730A4C
:100B5000433A09416374697661746520436F6E732B
:100B60006F6C65204D6F64650A46312D4631303A11
:100B70000953776974636820746F204C61796572DA
:100B800020302D392028463130203D204C30290A94
:100B9000302D393A0953776974636820746F204C9B
:100BA0006179657220302D390A47524156453A091C
:100BB00053776974636820746F204C617965722083
:100BC000302028616C7465726E617465290A423A3E
:100BD000094A756D7020746F20426F6F746C6F617D
:100BE0006465720A4553433A094A756D7020746F03
:100BF00020426F6F746C6F616465722028616C7441
:100C000065726E617465290A453A095072696E749D
:100C100020454550524F4D2053657474696E67737B
:100C20000A4253504143453A09436C65617220457D
:100C30004550524F4D0A4E3A094E4B524F20546F79
:100C400067676C650A000A002575002E6C6576657D
:100C50006C3A20000A002575002E656E61626C6595
:100C60003A20000A0025303258006261636B6C69DB
:100C70006768745F636F6E6669672E7261773A208A
:100C8000000A002575002E6E6B726F3A20000A0074
:100C90002575002E737761705F6261636B736C61A1
:100CA00073685F6261636B73706163653A20000A09
:100CB000002575002E737761705F67726176655FDE
:100CC0006573633A20000A002575002E6E6F5F671A
:100CD00075693A20000A002575002E737761705FF0
:100CE00072616C745F726775693A20000A0025753D
:100CF000002E737761705F6C616C745F6C677569EF
:100D00003A20000A002575002E737761705F7263C8
:100D1000746C5F726775693A20000A002575002EB1
:100D2000737761705F6C63746C5F6C6775693A2090
:100D3000000A002575002E636170736C6F636B5F32
:100D4000746F5F636F6E74726F6C3A20000A0025D7
:100D500075002E737761705F636F6E74726F6C5F76
:100D6000636170736C6F636B3A20000A0025303248
:100D700058006B65796D61705F636F6E6669672E91
:100D80007261773A20000A002575002E6D6F757329
:100D9000653A20000A002575002E6B6579626F6147
:100DA00072643A20000A002575002E6D6174726924
:100DB000783A20000A002575002E656E61626C6528
:100DC0003A20000A00253032580064656275675F7A
:100DD000636F6E6669672E7261773A20000A00259C
:100DE000750064656661756C745F6C617965723AF3
:100DF00020003F004E4B524F3A206F66660A004E6D
:100E00004B524F3A206F6E0A000A6D6F7573653A48
:100E1000206F66660A000A6D6F7573653A206F6E03
:100E20000A000A6B6579626F6172643A206F6666C8
:100E30000A000A6B6579626F6172643A206F6E0A0C
:100E4000000A6D61747269783A206F66660A000A5A
:100E50006D61747269783A206F6E0A000A64656287
:100E600075673A206F66660A000A64656275673ABC
:100E7000206F6E0A000A0A4A756D70696E672074E9
:100E80006F20626F6F746C6F616465722E2E2E20FE
:100E900000433E2000436C656172696E67204545E2
:100EA00050524F4D0A006565636F6E6669673A0A76
:100EB000005B735D004B6579626F617264207374CF
:100EC0006172742E0A005B575D005B535D005B52DC
:100ED0005D005B445D005B435D0004033000000087
:100EE0001603470048003600300020005300610020
:100EF000740061006E0000000C03530041005400B8
:100F000041004E0000000403090409025B000301D4
:100F100000A0FA09040000010301010009211101E8
:100F200000012240000705810308000A09040100AE
:100F30000103000000092111010001226D000705D5
:100F4000820320000A0904020002030000000921B4
:100F5000110100012222000705830320000107057B
:100F600003032000011201100100000008354302B4
:100F7000000300010203010631FF0974A101097594
:100F8000150026FF009520750881020976150026B8
:100F9000FF00952075089102C005010980A1018517
:100FA0000319012AB700150126B7009501751081B4
:100FB00000C0050C0901A101850419012AA0021530
:100FC0000126A002950175108100C005010906A146
:100FD000018505050719E029E71500250195087524
:100FE0000181020507190029EF1500250195F0750B
:100FF00001810205081901290595057501910295E0
:101000000175039101C005010906A101050719E059
:1010100029E71500250195087501810295017508DC
:1010200081010507190029FF150026FF00950675A7
:10103000088100050819012905950575019102959A
:101040000175039101C011241FBECFEFDAE0DEBFAE
:10105000CDBF04B603FE27C08091210390912203E7
:10106000A0912303B09124038730904BA740B04B4D
:10107000D1F41092210310922203109223031092B4
:10108000240314BE84B7877F84BF0FB6F894A89555
:1010900080916000886180936000109260000FBEB4
:1010A000E0E0F8E3099511E0A0E0B1E0E4EFF9E653
:1010B00002C005900D92A23DB107D9F723E0A2ED41
:1010C000B1E001C01D92A132B207E1F70E942F2EBC
:1010D0000C94F8340C940000FF93EF93E091D2014C
:1010E000F091D301309709F00995EF91FF910895A0
:1010F000FC018591803011F0EFDFFBCF0895FF27D1
:10110000E0E230E247FF0CC0419597FF09C0EDE2F5
:101110006095709580959095611D711D811D911D43
:1011200027FF02C0219530E350E2AA27660F771F00
:10113000881F991FAA1FA41710F0A41B63955A9526
:10114000A9F7AA3008F0A95FA05DAF93F3956115E8
:1011500071058105910541F7ED3211F4EF93F39597
:10116000F21718F43F93F395FBCF8F91B5DFFA9503
:10117000E1F70895E991F9918591803021F0853268
:1011800019F0AADFF9CF089520E0E894559155327F
:10119000C1F3503311F4689455915A3348F45053C5
:1011A00090F3220F022E220F220F200D250FF4CFD5
:1011B0000EF4219589919991533619F3533729F1FA
:1011C000533559F1BC0188279927E8945C3621F4FE
:1011D0008991999168945591543639F446EF7EF08F
:1011E00077FF0DC08FEF9FEF0AC055374AE039F007
:1011F000583540E121F0523642E009F00895FF935E
:10120000EF937DDFEF91FF91B7CFFF93EF93FC0159
:1012100081918030B9F360DFFBCFFF93EF9368DFFC
:10122000F1CFDF93CF93CDB7DEB72596A3DFCF9174
:10123000DF9108950C94660C229A08950E94680C20
:101240000C941C0981FF02C02A9808952A9A0895D7
:1012500081E0089581E008950C942A0908950C9482
:101260002E091F93CF93DF9300D000D01F92CDB7EC
:10127000DEB749835A836B833091200289819A813A
:10128000311114C0662359F0222349F00E94D02462
:10129000182F682F89819A810E94792403C00E94A7
:1012A000A424182F69817A81812F04C00E94D02440
:1012B00069817A810F900F900F900F900F90DF91BE
:1012C000CF911F910C940D0AFC01262F4081518172
:1012D0006281738184810C943109CF93DF93EC0197
:1012E00060E00E946409BE01DF91CF910C942F0948
:1012F0000E94C4280E943226811102C00E94DB266F
:101300000E94D9170C941E090C941A0981E00895C3
:101310000C948609CF93C82F0E9422098C2F0E941B
:101320008809CF91089508950E94851F0E9493090E
:101330002FEF84E39CE0215080409040E1F700C013
:1013400000000C949E280F931F93CF93DF93EC0122
:1013500061E00E9464098C01BE010E942C0988236F
:1013600009F450C0BE01C8010E944217882309F445
:1013700049C0BE01C8010E948818882309F442C0F0
:10138000BE01C8010E94C9188823E1F1BE01C8014D
:101390000E94F4198823B1F1BE01C8010E948B1587
:1013A000882381F18A81882331F101308CE5180787
:1013B00051F00E3D8CE51807D9F001151C45D9F404
:1013C0000E9494091FC08091B302C82FC095C170BC
:1013D000C0FB80F98093B302CC2329F08CEC92E01F
:1013E0000E9478080FC08AEB92E00E9478080BC038
:1013F0000E94DB2607C0CE01DF91CF911F910F9194
:101400000C942809C0E08C2FDF91CF911F910F9190
:10141000089580E090E00895089526E4829FC00139
:101420001124FC012EE0729FE00DF11D1124E60F46
:10143000F11DEE0FFF1FEE55FE4F8591949108951B
:10144000880F991FFC01E352FD4F859194910895F7
:10145000CF93DF930E940D0A0E943A0BEC01811595
:10146000904508F043C0C11580E4D80708F0CBC010
:10147000C03ED10528F5C03CD10508F0B3C0C83A3C
:10148000D10578F4C53AD10508F0A4C0C130D10522
:1014900009F4ECC008F4E8C0C430D10508F0E6C097
:1014A000E3C0CF3BD10508F0DFC0C85AD0E0CC0F75
:1014B000DD1FCD5DDE4F0990D881C02DD464D6C02C
:1014C000C11590E2D90750F4C11521E0D20708F008
:1014D000CDC0C83ED10508F4C9C0C6C0C11580E35F
:1014E000D80708F086C0CE019F707FC0C11595E572
:1014F000D90708F043C0C11524E5D20708F09AC007
:10150000C11582E5D80708F5C11591E5D90708F09E
:101510007DC0CE0174E0969587957A95E1F783704A
:101520009C2F937021E030E002C0220F331F9A9568
:10153000E2F73C68382BCF70C695C69580E2C89F0D
:10154000E0011124C22BD32B91C09E0123703327BD
:101550008C2F86958695C115D34508F05CC0C1E0F7
:10156000D0E002C0CC0FDD1F2A95E2F720E2829F77
:10157000C0011124C82BD92BDC6878C0C11529E51E
:10158000D207A0F4C11588E5D80708F058C0C115E6
:1015900096E5D90708F068C08C2F0E94CE0B8F719A
:1015A000C82FD0E0DC2FCC27D06260C0C1152AE55F
:1015B000D20708F449C0CE0190568115904208F038
:1015C00053C08D2F8F710E94CE0BDD27D0628F719B
:1015D000D82B4CC0C55AD0E0CF5ADE4FC881D0E0DE
:1015E000D06444C0CE01805C91090E94200AEC01C5
:1015F0003DC0CE019927D3FF03C0EC01D86C36C0A3
:10160000EC01D06C33C0DF70D06A30C0DC2FCC2747
:10161000C16FD06A2BC0C1E0D0E002C0CC0FDD1F8B
:101620002A95E2F720E2829FC0011124C82BD92B12
:10163000DA681CC0DC2FCC27C46FD06A17C0DC2F3F
:10164000CC27C06FD06A12C08C2F8F700E94CE0B37
:1016500094E0D695C7959A95E1F7CF70D0E0DC2F4E
:10166000CC27D069C82B02C0C0E0D0E0CE01DF910A
:10167000CF9108958238910569F1B0F481339105D5
:1016800009F46DC048F48932910509F463C08A32C7
:10169000910509F469C008958533910509F455C091
:1016A00089339105B9F00895833E910569F138F4C5
:1016B000803E9105B1F0823E910509F10895863E84
:1016C0009105A9F1873E9105B9F1843E910509F094
:1016D00064C023C02091120320FD4FC021FD4DC0E6
:1016E00008958091120380FD44C08091130380FF10
:1016F00044C08091120384FD42C083EE4DC08091AE
:10170000120382FF38C0F5CF8091120382FD33C0EF
:101710008091130380FD31C0ECCF8091130381FFD2
:1017200032C08091120384FD2AC087EE35C08091BB
:10173000120383FF26C0F5CF8091120383FD21C0E1
:101740008091130381FD1FC0ECCF8091120385FDB2
:101750001CC01DC08091120385FD19C016C0809168
:10176000120386FD16C017C08091120386FD13C0B8
:1017700010C089E311C082EE0FC080EE0DC080E082
:101780000BC086EE09C084EE07C089E205C085E380
:1017900003C08AE201C081E390E0089590911203B2
:1017A00092FF0DC0282F2871283019F4877F84609C
:1017B00006C0282F2471243011F48B7F886093FF9A
:1017C0000DC0282F2871283119F4877E846106C046
:1017D000282F2471243111F48B7E8861209113030A
:1017E00020FF0DC0382F3871383019F4877F8160A1
:1017F00006C0382F3171313011F48E7F886021FF9F
:101800000DC0282F2871283119F4877E816106C008
:10181000282F2171213111F48E7E886194FD877EFD
:101820000895E82FF0E0EE0FFF1FEA51FD4F808191
:1018300091810895CF92DF92EF92FF920F931F93C1
:10184000CF93DF938DEE92E00E94780886EEE82E2B
:1018500082E0F82EC0E0D0E098EEC92E92E0D92EBA
:101860000FED12E0DF93CF93DF92CF920E94110928
:1018700085EE92E00E947808F701819191917F01B5
:101880000E9419269F938F931F930F930E94110913
:101890008DED92E00E94780821968DB79EB708964C
:1018A0000FB6F8949EBF0FBE8DBFC530D105D1F6DF
:1018B000DF91CF911F910F91FF90EF90DF90CF902C
:1018C000089580EA8A95F1F7089508950C94650CBF
:1018D0000C94650CCF93DF93A2E6B1E047E651E0AC
:1018E00061E070E08D91E82FE295EF70F0E021A1CA
:1018F0008F70EB0102C0CC0FDD1F8A95E2F7CE019D
:101900009C2F9095922391A392A1892B82A34A1791
:101910005B0741F7A4E5B1E042E651E061E070E029
:101920008D91E82FE295EF70F0E021A18F70EB012F
:1019300002C0CC0FDD1F8A95E2F7CE019C2F909557
:10194000922391A392A1892B82A34A175B0741F7A7
:10195000ECEDF2E0A6EEB2E086EE92E0119211928A
:101960001D921D928E179F07C9F785E00E94490DB1
:10197000DF91CF910C9478096F927F928F929F9212
:10198000AF92BF92CF92DF92EF92FF920F931F938D
:10199000CF93DF9382E6C82E81E0D82E0CED12E0C3
:1019A00096EEA92E92E0B92E712C88248394912C66
:1019B000F60181916F01C82FC295CF70D0E099A137
:1019C0008F70740101C0EE0C8A95EAF7892F8E2979
:1019D00089A38AA16E2C609486218AA30E94610C3F
:1019E000E4E5F1E040E050E020E030E06191A62F36
:1019F000A295AF70B0E090968C9190E06F7002C0AD
:101A0000959587956A95E2F780FD08C0C401042E7C
:101A100002C0880F991F0A94E2F702C080E090E0AC
:101A2000282B392B4F5F5F4F4E305105F9F689A1B6
:101A3000682269A28AA1E82AEAA2F801808191813C
:101A40002817390721F03183208381E001C080E02D
:101A5000782A0E5F1F4FA016B10609F0A9CF272DD7
:101A600045E066EE72E08CED92E00E944A0D0E9425
:101A70008409872DDF91CF911F910F91FF90EF90F7
:101A8000DF90CF90BF90AF909F908F907F906F909E
:101A900008950895FF920F931F93CF93DF93F82E2D
:101AA000092F162FD72FC42F222349F081E08093CE
:101AB000D6010E9451289093D5018093D401809142
:101AC000D6018823D9F08091D4019091D5010E944C
:101AD0006928069798F0EF2DF02FA12FBD2F80E0F9
:101AE00090E04C2F50E08417950734F42191319108
:101AF0002D933D930196F7CF1092D601DF91CF91B0
:101B00001F910F91FF900895EF92FF920F931F93F3
:101B1000CF93DF93F62E472FE82FF0E0711106C028
:101B2000E558F84F6491762F862F72C0272F30E04A
:101B3000E558F84FE4910E2F10E056E0659FC00184
:101B40001124CFEFD0E0BE010E94B6335BEA56030A
:101B5000C001579F900D11248F0D911D8F0D911D68
:101B6000982F990F890F7E01E21AF30AE09ED001A7
:101B7000E19EB00DF09EB00D1124489FA0011124EC
:101B8000452F55277E01E41AF50AE09EA001E19E4B
:101B9000500DF09E500D11247E01E81AF108E29ECE
:101BA000C001E39E900DF29E900D1124892F99277C
:101BB000C81BD90BC09FC001C19F900DD09F900D35
:101BC00011246230710591F048F461157105E1F05E
:101BD00061307105A9F48B2F752F19C06430710520
:101BE00061F038F06630710579F00AC0892F7B2FDB
:101BF0000EC08E2F7B2FE52F0AC08E2F792F02C0AB
:101C0000852F7E2FEB2F03C08B2F7E2FE92F6E2F7A
:101C1000DF91CF911F910F91FF90EF90089508955C
:101C2000CF93DF93762FE901682F842F0E94840DD4
:101C3000798368838A83DF91CF9108958091F00240
:101C4000282F269530E02115310519F48170826026
:101C500005C02B32310524F0817084658093F00239
:101C6000089588E090E00C949134CF92DF92EF9247
:101C7000FF926B017C010E941E0EB701A60188E055
:101C800090E0FF90EF90DF90CF900C94AF34E0EFB6
:101C9000F2E083E0808311828FEF8283838314825A
:101CA00060817181828193810C94350E8091B302A1
:101CB00080FF08C089EC95E09F938F930E941109E3
:101CC0000F900F908091B30280FF0FC08091F002BF
:101CD00081701F928F938CEA95E09F938F930E945F
:101CE00011090F900F900F900F908091B30280FF19
:101CF0000FC08091F00286951F928F9381E995E045
:101D00009F938F930E9411090F900F900F900F9047
:101D10008091B30280FF0EC08091F1021F928F93D9
:101D200087E795E09F938F930E9411090F900F9082
:101D30000F900F908091B30280FF0EC08091F2024D
:101D40001F928F938DE595E09F938F930E941109C9
:101D50000F900F900F900F908091B30280FF0EC0F4
:101D60008091F3021F928F9383E495E09F938F936A
:101D70000E9411090F900F900F900F908091B30265
:101D800080FF0EC08091F4021F928F9387E295E04E
:101D90009F938F930E9411090F900F900F900F90B7
:101DA00008958091F00280FF02C08695089580E03A
:101DB00008958091F402833018F48F5F8093F402C9
:101DC0006091F0027091F1028091F2029091F30221
:101DD0000C94350E8091F402882319F08150809381
:101DE000F4026091F0027091F1028091F202909100
:101DF000F3020C94350E70E00C94E9176091070122
:101E00008091F00280FF0AC08091060123E0829F4A
:101E1000C00111248B509D4F0C94FB0E8091080142
:101E200090910901891780F7E82FF0E09F01220FB8
:101E3000331FE20FF31FEB50FD4F1182108212820D
:101E40008F5FF0CF9091F00290FF16C09091080143
:101E500020910901921770F4E92FF0E0DF01AA0F39
:101E6000BB1FEA0FFB1FEB50FD4F81836083428352
:101E70009F5FF0CF0C94FE0E0895CF93DF9300D0B8
:101E80001F92CDB7DEB79091F00290FF0AC09E017D
:101E90002F5F3F4F0E94100E4B8169818A810E9403
:101EA000220F0F900F900F90DF91CF910895CF9355
:101EB000DF93EC01EC81F0E0E950FA4F4491E0EF60
:101EC000F2E0628181810E943D0F8C818F5F8C8363
:101ED000DF91CF910895CF93DF93EC01E0EFF2E033
:101EE000438162818C810E943D0F8C818F5F8C8346
:101EF000DF91CF9108950F931F93CF93DF9300D07D
:101F00001F92CDB7DEB78C018091D70181110AC035
:101F10009E012F5F3F4F4FEF6FEF0E94100E8A819F
:101F20008093D701F8018481813051F028F082300C
:101F300061F44091D7010AC08091D70140E007C009
:101F40006091D70140E080E003C040E080E060E0C5
:101F50000E94220FF801848190E0019663E070E016
:101F60000E94CA3384830F900F900F90DF91CF911E
:101F70001F910F9108954F925F926F927F928F926F
:101F80009F92AF92BF92CF92DF92EF92FF920F9308
:101F90001F93CF93DF9300D01F92CDB7DEB7F82EFB
:101FA000B62EE42E622E9091F00290FFB4C0E92F7D
:101FB000E695AE2FB0E0A959BE4F8C9180930902EF
:101FC0009E7F923061F49E012F5F3F4F8F2D0E94C4
:101FD000100E4B8169818A810E94220F62C082307B
:101FE00019F4E090F3025DC0863019F4F090F1022C
:101FF00058C08930D9F3893109F053C0E9518E2F87
:102000008170782E81E0A72CA826E695F0E0E950B3
:10201000F94FC590D490412CDD2492E8892E93E0AD
:10202000992E60910A014616D0F5042D10E00C9D02
:10203000C0010D9D900D1C9D900D112470E00E941B
:10204000B6335F2C711002C0560E01C0561A809133
:10205000B30280FF11C0DF92CF921F92AF921F9206
:102060005F921F924F929F928F920E9411090FB61A
:10207000F894DEBF0FBECDBF80910801080F111D7F
:102080009801220F331F020F131F98012B503D4F51
:102090004E2D6B2D852D0E94100E4394C2CF0E94B1
:1020A000FE0EF092F102B092F202E092F30266208C
:1020B000E9F06091F0027091F1028091F20290914A
:1020C000F3020E94350E8091B30280FF24C08091FC
:1020D000F3021F928F938091F2021F928F9380914F
:1020E000F1021F928F938DE593E00CC08091B302B3
:1020F00080FF11C01F92EF921F92BF921F92FF921A
:1021000086E393E09F938F930E9411090FB6F89492
:10211000DEBF0FBECDBF0F900F900F90DF91CF911C
:102120001F910F91FF90EF90DF90CF90BF90AF90F5
:102130009F908F907F906F905F904F900895E0EF09
:10214000F2E09181282F438162818AE0890F0C940B
:10215000BB0F81E00C949F10E0EFF2E09181282FFB
:102160004381628186EF890F0C94BB0F81E00C9450
:10217000AC10E0EFF2E0628121E1620F08F46FEF52
:10218000282F438181810C94BB0F81E00C94B910FE
:10219000E0EFF2E0628121E1621B08F460E0282FA9
:1021A000438181810C94BB0F81E00C94C810E0EF57
:1021B000F2E0438121E1420F08F44FEF282F6281C2
:1021C00081810C94BB0F81E00C94D710E0EFF2E01A
:1021D000438121E1421B08F440E0282F6281818184
:1021E0000C94BB0F81E00C94E61020E00C94BB0F24
:1021F000FF920F931F93CF93DF93EC01F12C0FEF1E
:1022000010E060910A01F616F0F4809108012F2D7C
:1022100030E0280F311DC901880F991F280F391F81
:102220002B503D4F70E0C8010E94CA33962F8C811D
:102230004091F3026091F202F99E800D11240E94F8
:10224000100EF394DECF0E94FE0E9A818C8190FFD7
:1022500002C08F5F01C081508C83DF91CF911F91AD
:102260000F91FF900895BF92CF92DF92EF92FF926D
:102270000F931F93CF93DF93FC01828180FF02C0F5
:102280000FEF01C001E010E080910A01181708F07B
:1022900040C080910801C12ED12CE601C80FD11D8C
:1022A000CE01880F991FC80FD91FCB50DD4F19825F
:1022B00018821A8234E0E32EF12CB12C8091D901DE
:1022C0008B0D893014F0877005C087FF03C0909193
:1022D0000A01890F082E000C990BC816D90691F433
:1022E0008091F3028E9DA0018F9D500D1124559574
:1022F0004795559547959E016091F2028091F102B4
:102300000E94100EB00EF1E0EF1AF108B9F61F5F4F
:10231000BBCF0E94FE0E8091D901013031F48111B2
:1023200002C080910A01815007C090E0019660913F
:102330000A0170E00E94CA338093D901DF91CF91E6
:102340001F910F91FF90EF90DF90CF90BF90089575
:10235000CF938091080190910901891770F4E82FBB
:10236000F0E09F01220F331FE20FF31FEB50FD4FF0
:102370001182108212828F5FF0CFC0E060910A015B
:10238000C617C0F5EC2FF0E070E0CF010E94CA3311
:1023900020910801820F2091D801022E000C330BEE
:1023A00090E0E217F307CCF020910501022E000C1B
:1023B000330B2E173F078CF09C01220F331F820F27
:1023C000931F9C012B503D4F4091F3026091F2020C
:1023D0008091F1020E94100E0BC0FC01EE0FFF1F56
:1023E0008E0F9F1FFC01EB50FD4F11821082128255
:1023F000CF5FC4CF0E94FE0E209104018091D801CE
:10240000820F8093D80190910501920F909305015E
:1024100019165CF4082E000C990B40910A0150E04B
:1024200041505109841795071CF021952093040110
:10243000CF9108950F931F93CF93DF938C01FC01ED
:102440008481958101968170992795838483C0E06A
:10245000D5E580910A01C81700F5809108012C2F5D
:1024600030E0280F311DC901880F991F280F391F2F
:102470002B503D4F4C2F4695F80184819581840F58
:10248000911D81704091F3026091F2028D9F802D29
:1024900011240E94100ECF5FDCCFDF91CF911F91EE
:1024A0000F910C94FE0E0F931F93CF93DF93EC01CB
:1024B00000E010E080910A01282F30E00217130796
:1024C00024F5909108019801290F311DA901440FAD
:1024D000551F240F351F2B503D4F869590E04C81A2
:1024E000081719071CF4442331F002C0411103C03E
:1024F0004091F30201C040E06091F2028091F1024C
:102500000E94100E0F5F1F4FD5CF0E94FE0E8C81D0
:1025100090E00196817099278C83DF91CF911F9174
:102520000F9108958F929F92AF92BF92CF92DF92B8
:10253000EF92FF920F931F93CF93DF93FC01B28032
:10254000948081E0848300E015E05BE4A52E88247C
:102550008394EE24EA94F12C7BE4C72ED12C809155
:102560000A01081708F08FC0C02FD0E01C9FF001AF
:102570001D9FF00D1124E652FE4F911003C01382EF
:10258000128267C02381222389F121502383348161
:10259000332319F09A2D921B01C0922F8091F302E0
:1025A0001C9FF0011D9FF00D1124E652FE4F899FE4
:1025B000C0011124B6010E94B6336283211104C008
:1025C000332311F01482A38222E02B1508F441C0BA
:1025D0001C9FF0011D9FF00D1124E652FE4F8091CB
:1025E000F10280838091F202818333C00E946C34B7
:1025F0008230914074F582E08B1530F40E946C3487
:10260000B7010E94CA3302C08091F1021C9FF00101
:102610001D9FF00D1124E652FE4F808322E02B1502
:1026200058F40E946C342091F2022695622F70E0DB
:102630000E94CA33820F02C08091F2021C9FF001F7
:102640001D9FF00D1124E652FE4F81831282A3825A
:102650008482809108019E01280F311DC901880FD5
:10266000991F280F391F2B503D4F1C9FF0011D9FB4
:10267000F00D1124E652FE4F4281618180810E945B
:10268000100E0F5F6CCFDF91CF911F910F91FF90D4
:10269000EF90DF90CF90BF90AF909F908F900C9471
:1026A000FE0E6091F002669570E04BE050E08BE02A
:1026B00091E00E947C34892B19F481E080930A0216
:1026C0000E94512890930302809302028091B302EA
:1026D00080FF08C08DE193E09F938F930E941109C2
:1026E0000F900F90089510920A028091B30280FF1C
:1026F00008C084E093E09F938F930E9411090F908C
:102700000F9008959091F00290FF54C09170811144
:1027100002C0926006C08B3210F0946502C0880F30
:10272000982B9093F0026623B1F06091F0027091C3
:10273000F1028091F2029091F3020E94350E809195
:10274000B30280FF1BC08091F00286951F928F9389
:102750008DE694E00BC08091B30280FF0FC08091A2
:10276000F00286951F928F938FE494E09F938F934E
:102770000E9411090F900F900F900F906091F0023E
:10278000669570E04BE050E08BE091E00E947C3475
:10279000892B19F00E94731302C00E94511381E02B
:1027A000809305024091F3026091F2028091F10260
:1027B0000C94F5100895682F9091F002969581E0A1
:1027C000890F8B3208F081E00C94821381E00C9425
:1027D000DB13682F9091F00296958FEF890F09F423
:1027E0008AE20C94821381E00C94E91361E00C946A
:1027F00082138091F00281608093F0028091B30295
:1028000080FF0DC01F9281E08F9381EE93E09F9334
:102810008F930E9411090F900F900F900F9080914D
:10282000F00286950C94F61360E00C94821380916C
:102830000802811160C08091B30280FF08C080E16E
:1028400095E09F938F930E9411090F900F908091B4
:10285000B30280FF08C08AEF94E09F938F930E9499
:1028600011090F900F900E943226811110C08091A3
:10287000B30280FF08C082ED94E09F938F930E9483
:1028800011090F900F900E94DB260E94470E0E94B4
:10289000310E6093F0027093F1028093F2029093F4
:1028A000F3026E7FC1F48091B30280FF08C089E813
:1028B00094E09F938F930E9411090F900F900E94B4
:1028C000470E0E94310E6093F0027093F1028093E4
:1028D000F2029093F3020E941E0E0E94560E109276
:1028E0000A028091F00280FF03C086950E941414B2
:1028F00081E08093080208958091F0028E7F80939A
:10290000F0026091F0027091F1028091F2029091D8
:10291000F3020E94350E8091B30280FF0FC08091B8
:10292000F00281701F928F9389EA93E09F938F93B7
:102930000E9411090F900F900F900F900E94731337
:102940002FEF80E792E0215080409040E1F700C0F7
:1029500000000C94FE0E8091B30280FF10C08091A5
:10296000F002809581701F928F9388E194E09F938D
:102970008F930E9411090F900F900F900F908091EC
:10298000F00280FD0C947C140C94F9130F931F93A8
:10299000CF93DF9380910A02882309F49CC0809131
:1029A0000902E091F002E695E81BE0930402823010
:1029B00049F4F0E0ED50FA4FE491CE2FD0E007E576
:1029C0001FE059C0863049F4F0E0E051FA4FE4913D
:1029D000CE2FD0E00BE61FE04EC0893051F4E695D3
:1029E000F0E0E351FA4FE491CE2FD0E008EF10E190
:1029F00042C08F3051F4E695F0E0E651FA4FE49191
:102A0000CE2FD0E003E311E136C0853149F4F0E088
:102A1000E951FA4FE491CE2FD0E008EA11E12BC042
:102A20008831D9F0833239F4E5EEF5E0C591D491DF
:102A30000BE71FE020C08432A9F08532C1F48E2F4D
:102A400063E00E94AA33E92FF0E0EE51FA4FE491DF
:102A5000CE2FD0E002E912E10EC0C8EED3E00AE1C9
:102A600012E109C0C4EFD1E003E512E104C0C0EDFA
:102A7000D7E00FE01EE080910502882389F01092D4
:102A800005020E9451289E0120953095820F931FC8
:102A900090930302809302021092070210920602A2
:102AA00080910202909103020E9469288C179D0771
:102AB00090F0E0910202F0910302CE0FDF1FD0935D
:102AC0000302C093020282E092E0F801DF91CF910D
:102AD0001F910F910994DF91CF911F910F9108954C
:102AE000882311F0FA0101C0FB010994CF93DF9311
:102AF000C82FD62F0E94D10E8C1740F00E94D10E05
:102B00008D1720F4DF91CF910C94E6138C2FDF9179
:102B1000CF910C94F6130F931F93CF93FB01C281B7
:102B2000CC2309F463C08C010E9451258272F80104
:102B3000E25CFC45E431F10508F059C0EA5AFF4F68
:102B40000C9400340E94AB1406C043EF53E166EED0
:102B500073E10E947015C0E04AC046EE53E163EF96
:102B600073E1F7CF46EB50E169EA70E1F2CF49EA51
:102B700050E166EB70E1EDCF44ED50E165EC70E1C2
:102B8000E8CF45EC50E164ED70E1E3CF42EF50E176
:102B900063EE70E1DECF43EE50E162EF70E1D9CF3A
:102BA0004AEE5EE069ED7EE0D4CF49ED5EE06AEE8C
:102BB0007EE0CFCF81E017C065E082E010C068E022
:102BC00086E00DC06EE089E00AC064E18FE007C0D6
:102BD00067E185E104C088E106C062E289E10E9404
:102BE0007615B9CF83E20E94F613B5CFC1E08C2FE2
:102BF000CF911F910F9108950E943226811102C03A
:102C00000E94DB260E94632680930D03282F2695C1
:102C10002695269530E02530310524F087708062B6
:102C200080930D0380910D0380FF04C086958695E7
:102C3000869501C080E00C94771720910D03822FB8
:102C4000869586958695482F50E04430510554F47A
:102C50008F5F982F990F990F990F822F8770892B6B
:102C600080930D0380910D03816080930D030E947A
:102C700067268091B30280FF11C080910D03869575
:102C8000869586951F928F9383E697E09F938F9307
:102C90000E9411090F900F900F900F9080910D03DB
:102CA0008695869586950C94771780910D03982FBD
:102CB000969596959695A1F0915E990F990F990F1B
:102CC0008770892B80930D03887F91E009F490E051
:102CD00080910D0390FB80F980930D030E9467267D
:102CE0008091B30280FF11C080910D038695869577
:102CF00086951F928F938BE497E09F938F930E940A
:102D000011090F900F900F900F9080910D038695F1
:102D1000869586950C94771780910D0380FD1FC0D2
:102D2000816080930D03813019F489E080930D0355
:102D300080910D030E9467268091B30280FF08C036
:102D400083E297E09F938F930E9411090F900F9059
:102D500080910D038695869586950C947717089536
:102D600080910D0380FF14C08E7F80930D030E941D
:102D700067268091B30280FF08C080E197E09F93AF
:102D80008F930E9411090F900F9080E00C94771799
:102D90000895CF93C0910D03C1708091B30280FF5D
:102DA0000CC01F92CF9385E397E09F938F930E946F
:102DB00011090F900F900F900F90CC2319F0CF9125
:102DC0000C94B016CF910C948C1690910D03892F12
:102DD0008695869586958F5F8F719770853038F4CC
:102DE000880F880F880F892B80930D0302C0909362
:102DF0000D0380910D03887F91E009F490E08091AC
:102E00000D0390FB80F980930D030E94672680914B
:102E1000B30280FF11C080910D038695869586953B
:102E20001F928F938CEF96E09F938F930E941109CE
:102E30000F900F900F900F9080910D0386958695BF
:102E400086950C947717853008F084E090910D03F7
:102E50009770282F220F220F220F922B90930D0391
:102E6000987F21E009F420E090910D0320FB90F978
:102E700090930D030C9477170E94231780910D03F4
:102E80000C9467269C01FB018281882349F12D3B2C
:102E9000FCE53F07C9F040F42B3BECE53E0769F049
:102EA0002C3B3C4561F008952F3B9CE5390791F0A0
:102EB00070F0203C3C4589F0089584E001C080E03A
:102EC0000E943C1780E008950E945516FBCF0E9497
:102ED0001D16F8CF0E94C916F5CF0E94E516F2CF55
:102EE00081E00895269A2E9808952E980895CF92FD
:102EF000DF92EF92FF92CF93C82F853050F481116B
:102F000009C0809180008F7D809380000E9475179A
:102F100006C0C4E0809180008062809380002C2FE6
:102F200030E0AFEFBFEF0E940634DC01CB0142E09E
:102F3000B695A795979587954A95D1F78C3744E133
:102F4000940728F469E070E00E94B63327C08A50E5
:102F5000974DAF4FBF4F6627782F892F9A2F25EFB8
:102F600038E241E050E00E94DE3369017A01CA0193
:102F7000B9010E949A339B01AC01C701B6010E94BE
:102F80009A33BB27A92F982F872F009721E0A207FC
:102F9000B10511F0BC0102C06FEF7FEF70938B00A1
:102FA00060938A00CF91FF90EF90DF90CF900895CB
:102FB00008950E94721782E28093800089E18093D5
:102FC00081008FEF9FEF90938700809386000C9491
:102FD000FC156A9A2EB12B7F3EB134604FB7F8943E
:102FE000FC01CB01880F991F680F791F6E0F7F1F9F
:102FF000E617F70789F0819198E03EB9000000C01C
:1030000087FF2EB9880F000000C000C000C02EB995
:1030100000C09A9591F7ECCF4FBF8FE594E00197F0
:10302000F1F700C0000008950F931F93CF93DF9333
:10303000C62FD42F122FFC0182818823C9F0609300
:103040000D020E94512890930C0280930B0280E2A3
:103050008C0F883008F057C0C77081E001C0880F1E
:10306000CA95EAF7DF91CF911F910F910C94041D3F
:1030700080910D02681330C080910B0290910C0278
:103080000E946928883C910538F500E20D0FCD17A4
:10309000B9F080E28C0F883040F4C77081E001C045
:1030A000880FCA95EAF70E940B1D083028F581E0C9
:1030B0009D2F977001C0880F9A95EAF70E94041D12
:1030C000812F0E94F11C0830F0F4D77081E001C01C
:1030D000880FDA95EAF70AC080E28C0F883098F4FE
:1030E000C77081E001C0880FCA95EAF7DF91CF91E0
:1030F0001F910F910C940B1D812FDF91CF911F9188
:103100000F910C94F11CDF91CF911F910F910895B5
:103110009C01CB01233F4CE53407F9F078F4283DBE
:10312000FCE53F07B9F0293D4CE5340711F1273D97
:103130003C4531F526E241EE61EE1EC0253FFCE53F
:103140003F0799F070F0263F3C45D1F427E245EE69
:1031500066EE12C027E245EE0EC026E241EE60EEBA
:103160000BC027E245EE64EE07C026E241EE62EEB8
:1031700003C028E241E065EE0E94141880E0089543
:10318000FC018281882319F010920D02089581E0DC
:103190000895CF93DF93EC01FB018281882309F42A
:1031A0001FC1C230FCE5DF0708F41BC1C6319CE536
:1031B000D90738F09E012A5F3C452930310508F0D7
:1031C00010C10E9445269093130380931203C031CF
:1031D000ECE5DE0709F4C3C008F041C0C8308CE557
:1031E000D80709F49AC0F0F4C430ECE5DE0709F41E
:1031F00087C068F4C2308CE5D80709F477C0C330C3
:10320000DC4509F0E3C080911203826076C0C630CD
:10321000ECE5DE0709F46EC008F07BC08091120374
:1032200088606BC0CC308CE5D80709F485C068F4A1
:10323000CA30ECE5DE0709F474C008F079C00E94DA
:10324000851F80911203806858C0CE308CE5D80766
:1032500009F476C008F07FC0809112038BC0CB3F89
:10326000ECE5DE0709F44FC018F5C3318CE5D8074B
:1032700009F47DC078F4C131ECE5DE0709F473C0D0
:10328000C231DC4509F0A2C00E94851F8091120363
:103290008F7733C0C5318CE5D80709F472C008F4C4
:1032A00086C0CA3FDC4509F091C0809113033EC03F
:1032B000CF3FFCE5DF0709F45FC058F4CD3F9CE544
:1032C000D90709F444C008F43FC080911303826019
:1032D0002DC0C130FDE5DF0709F475C008F45DC0FD
:1032E000C230DD4509F072C080E06EC080911203EB
:1032F000816003C08091120380618093120366C0D5
:103300008091120311C08091130382608093130394
:103310005DC0809112038062F0CF809112038064BF
:10332000ECCF8091120388608460E7CF8160EECF9C
:10333000809112038E7FE1CF809112038D7FDDCFCC
:1033400080911203877FD9CF8091130318C0809199
:1033500013038D7FDBCF809112038F7ECECF8091C0
:1033600012038F7DCACF809112038F7BC6CF8091CD
:103370001203877F8B7FC1CF809113038D7F8E7F58
:10338000C5CF8091120382FB222720F991E092277A
:1033900090FB82F990FB83F9B0CF80911303982FB3
:1033A000909591708E7F892B90FB81F9AFCF0E9411
:1033B000851F8091120387FB222720F991E0922735
:1033C00090FB87F99ACF81E00E94DD26809112035D
:1033D000909113030E9456260E94851F80E001C031
:1033E00081E0DF91CF910895CF93DF9386319C45A3
:1033F00041F5EB010E945125982F8A8120911601F9
:1034000030911701882379F09A7A81E009F480E0FD
:1034100080930E02911102C069E201C065E3C90107
:103420000E949A270AC080910E02811102C069E2AF
:1034300001C065E3C9010E94A5270E949F2580E085
:1034400001C081E0DF91CF910895909314028093A1
:1034500013020895E0911302F0911402309721F0C5
:103460000190F081E02D099480E00895EF92FF92A1
:103470001F93CF93DF93FC01A0911302B09114022C
:10348000109709F442C080912201882341F0809175
:10349000120387FF04C08081818385E08083EF0170
:1034A0001296ED91FC911397CE0109958091B3028C
:1034B00082FF2BC080FF04C083E898E00E94780858
:1034C00018E08DE7E82E88E0F82E8091B30280FFA7
:1034D0000BC088811F928F93FF92EF920E94110977
:1034E0000F900F900F900F90115021961111EDCF6A
:1034F0008091B30280FF09C08BE798E0DF91CF9104
:103500001F91FF90EF900C947808DF91CF911F915D
:10351000FF90EF9008952091110230911202281728
:10352000390771F09093120280931102E091130217
:10353000F0911402309721F00680F781E02D099474
:10354000089520910F02309110022817390771F069
:103550009093100280930F02E0911302F0911402F5
:10356000309721F00084F185E02D0994089585B706
:10357000806885BF85B7806885BF089508950C94DD
:10358000BE1A0C94BF1A0C94BE1A0C94BE1A0E9458
:10359000B71A0E94C31A0C94C11A81E008950C94C2
:1035A000CD1A0E9448280E946A0C0E94D8280E94C6
:1035B000FC150E9417140C94C51ACF93C82F809144
:1035C000B30282FF1EC080FF04C08CE998E00E9415
:1035D00078088091B30280FF0CC01F92CF9387E9D7
:1035E00098E09F938F930E9411090F900F900F9076
:1035F0000F908091B30280FF04C085E998E00E949B
:1036000078088C2FCF910C948A097F928F929F9289
:10361000AF92BF92CF92DF92EF92FF920F931F93E0
:10362000CF93DF93CDB7DEB72A970FB6F894DEBFFE
:103630000FBECDBF0E94BC0C0E94CF1A811111C0D9
:103640008FEF89838A831B820E9451288160782FA3
:103650009D838C8349815A816B818D810E94B71B28
:103660004FC046E1A42E42E0B42E00E010E0702EE0
:10367000802F0E94110C6C01F501819091905F01E7
:10368000882699268114910431F40F5F1F4F05306D
:10369000110569F7D5CF8091B30281FD0E941A0C04
:1036A00080E0EE24E394F12C94012E213F21232B82
:1036B00009F18E837F82CE20DF2081E0CD2809F4BE
:1036C00080E088870E9451288160782F9A878987B7
:1036D0004E815F8168858A850E94B71B000F111F8C
:1036E000F801EA5EFD4F80819181E826F926F1829A
:1036F000E08206C08F5FEE0CFF1C8E30A9F6C5CFAE
:103700000E94C6140E94D8170E942A1A909115028E
:103710008917C9F00E942A1A809315022A960FB6BB
:10372000F894DEBF0FBECDBFDF91CF911F910F91F7
:10373000FF90EF90DF90CF90BF90AF909F908F90D1
:103740007F900C94DD1A2A960FB6F894DEBF0FBE58
:10375000CDBFDF91CF911F910F91FF90EF90DF9040
:10376000CF90BF90AF909F908F907F900895CF9310
:10377000DF93CDB7DEB72B970FB6F894DEBF0FBE41
:10378000CDBF4F83588769877A878B87DE01119673
:1037900086E0FD0111928A95E9F785E0FE013796F2
:1037A00001900D928A95E1F749815A816B817C8164
:1037B0008D819E810E943E222B960FB6F894DEBF2B
:1037C0000FBECDBFDF91CF910895FC018081918123
:1037D0000E9412250895CF93882309F4A1C0C82F11
:1037E0008238C1F40E942A1A81FD9AC069E380914F
:1037F0001601909117010E949A270E949F252FEF92
:1038000081EE94E0215080409040E1F700C000003C
:1038100069E319C0833801F50E942A1A80FD80C02F
:1038200063E580911601909117010E949A270E94EA
:103830009F252FEF81EE94E0215080409040E1F7EA
:1038400000C0000063E580911601909117010E946D
:10385000A527CF910C949F258438C1F40E942A1A81
:1038600082FD5EC067E480911601909117010E946D
:103870009A270E949F252FEF81EE94E021508040EF
:103880009040E1F700C0000067E4DDCF8CEF8C0FC3
:10389000813AF8F48C2F0E94BB2B811141C06C2F10
:1038A00080911601909117010E94F826882349F013
:1038B0006C2F80911601909117010E94A5270E94FC
:1038C0009F256C2F80911601909117010E949A27D5
:1038D000C0CF80E28C0F883048F4C77081E001C00F
:1038E000880FCA95EAF70E945425B3CFEBE5EC0F99
:1038F000E33040F4F0E0E054FE4F808190E0CF915F
:103900000C948B1AC85AC73158F4EC2FF0E0EE0F24
:10391000FF1FEE56FE4F80819181CF910C94A11A2A
:10392000CF910895882309F45BC0682F823879F419
:103930000E942A1A81FF54C069E380911601909178
:1039400017010E949A270E949F2569E310C08338BF
:10395000B1F40E942A1A80FF43C063E580911601EA
:10396000909117010E949A270E949F2563E58091FC
:103970001601909117010E94A5270C949F25843869
:1039800079F40E942A1A82FF2BC067E48091160105
:10399000909117010E949A270E949F2567E4E7CF24
:1039A0008CEF860F813A18F380E2860F883048F456
:1039B000677081E001C0880F6A95EAF70E945A2576
:1039C000DCCF8BE5860F833020F480E090E00C9410
:1039D0008B1A685A673120F480E090E00C94A11AA9
:1039E0000895CF93C82F0E94EB1BC93349F42FEFE2
:1039F00087EE93E0215080409040E1F700C0000046
:103A00008C2FCF910C94921C882321F00E94542576
:103A10000C949F250895882321F00E945A250C9428
:103A20009F250895CF92DF92EF92FF920F931F93FD
:103A3000CF93DF937C01062FC72FFC0115811295D0
:103A40001F70D281D1110E9471250E944A258823BE
:103A500099F0DD2389F08C2F807F803421F080E283
:103A6000800F883048F082E00E94E9250E944A25B4
:103A700091E0D82ED92601C0D12CCC2EC2948FE053
:103A8000C8228C2D90E0FC01E659FF4F0C940034C5
:103A90008C2F807FCF70882311F0C295C07FDD23EB
:103AA00099F0CC2309F482C180E2800F883010F0B5
:103AB000011104C08C2F0E94542503C08C2F0E943A
:103AC00064250E949F2572C1802F0E94921CCC23E6
:103AD00009F491C180E2800F883010F0011104C018
:103AE0008C2F0E945A2503C08C2F0E946A250E94A9
:103AF0009F2581C18C2F807FCF70803211F0C295BD
:103B0000C07F002319F00130C9F022C0DD2371F01D
:103B1000112341F0113031F40E9484258C2B0E9436
:103B20008C2569C10E9484258C2B1DC0112319F09E
:103B3000113009F460C10E94952525C0DD2321F0D4
:103B4000163008F058C10EC0153008F054C11BC023
:103B5000DD2361F0112331F0F701858180FF26C15B
:103B60008F7085838C2F0E94041D45C1112359F04D
:103B7000093309F02CC1FFEF27EE83E0F15020401C
:103B80008040E1F722C18C2F0E940B1D34C18C2F85
:103B900086958695837019F0813061F02CC1DD2304
:103BA00021F0802F9C2F937002C080E090E00E9453
:103BB0008B1A29C1DD2321F0802F9C2F937002C026
:103BC00080E090E00E94A11A1EC18C2F837009F042
:103BD00045C0D11114C1402F429546954770440FFE
:103BE000440F602F6F70862F90E0A0E0B0E0042EAD
:103BF00004C0880F991FAA1FBB1F0A94D2F704FFA5
:103C000010C00FE010E020E030E004C0000F111FF2
:103C1000221F331F4A95D2F70095109520953095B5
:103C200003C000E010E09801C695C695C370BC01C2
:103C3000CD01602B712B822B932BC23049F058F4AD
:103C4000C13019F00E948F23DAC00E947D23D7C0B3
:103C50000E94A123D4C00E947B23D1C0DD2319F090
:103C60008C2F817001C08695882309F4C8C0402F2D
:103C7000429546954770440F440F602F6F70862F12
:103C800090E0A0E0B0E0042E04C0880F991FAA1FA6
:103C9000BB1F0A94D2F704FF10C00FE010E020E031
:103CA00030E004C0000F111F221F331F4A95D2F7C6
:103CB000009510952095309503C000E010E0980124
:103CC000C695C695C370BC01CD01602B712B822BAC
:103CD000932BC23049F058F4C13019F00E9454249B
:103CE0008EC00E9442248BC00E94662488C00E941D
:103CF000B52385C0CF70DD2339F08C2F0E94DB23E4
:103D0000802F0E94041D7BC0802F0E940B1D8C2FD2
:103D10000E94FC2374C0023F01F128F4003F41F0EF
:103D2000013FA1F03FC0033FF9F0043F39F13AC031
:103D3000DD2341F0153008F05EC08C2F8F710E949A
:103D4000212459C0163008F056C0F7CFDD2339F0D2
:103D50008C2F8F710E94DB234EC0DD23C9F38C2F83
:103D60008F710E94FC2347C0DD2329F08C2F8F71B7
:103D70000E94C62340C00E94C1233DC0DD2349F0FC
:103D8000CF718C2F0E94DB2363E08C2F0E94D425FF
:103D900032C081E00E94E925123068F182E00E9481
:103DA000E92529C0DD2331F0112391F2802F0E94F3
:103DB000EB1B21C0112399F2093349F49FEFE7EE81
:103DC000F3E09150E040F040E1F700C00000802FA8
:103DD0000E94921C10C04C2F4F70602FC7010E9490
:103DE000090A0E94EC220FC04C2F4F70602FC701B0
:103DF0000E940C0A08C088EF8C0D843020F40E94C9
:103E00002A1A0E948A09DD20C9F00E94462580FDF9
:103E100015C0F70112820E9440250E94DB23C701D2
:103E20000E943F1F0E944025DF91CF911F910F916B
:103E3000FF90EF90DF90CF900C94FC23DF91CF9117
:103E40001F910F91FF90EF90DF90CF9008950F9307
:103E50001F93CF93DF93EC01688179818A810E945F
:103E60001D258C010E9478240E946923B801CE018F
:103E70000E94121DDF91CF911F910F910895CF9352
:103E8000DF93EC01988189812B813C81232B31F0D8
:103E90008F3F31F481E09F3F19F403C081E001C0FE
:103EA00080E080FD19C0CE010E94A30981110CC0E1
:103EB0000E944A25882381F08A81882369F082E064
:103EC000DF91CF910C94E925CE010E94271FCE01EE
:103ED000DF91CF910C946D09DF91CF9108950E94ED
:103EE00071250E9481250E949F2580E090E00E941C
:103EF0008B1A80E090E00C94A11A809116019091A9
:103F000017010E94B0270C946F1F0E9461250C942A
:103F10007D1FE92FE295EF704E2F50E0FA013297A6
:103F2000EE30F105B0F4E658FF4F0C940034803FBA
:103F300091F018F4883E68F40EC0843F51F40BC031
:103F4000883E48F0813F29F406C093FB882780F91A
:103F5000089580E0089581E008950E9412250E944E
:103F6000891F0895CF93DF9300D000D01F92CDB763
:103F7000DEB70F900F900F900F900F90DF91CF91C1
:103F80000895CF93DF9300D000D000D0CDB7DEB737
:103F900026960FB6F894DEBF0FBECDBFDF91CF914E
:103FA00008951F93CF93DF93C091210216E0809173
:103FB0002202C81799F0D0E01C9FF0011D9FF00D60
:103FC0001124ED5DFD4F40815181628173818481B7
:103FD00095810E94C11F2196C770E9CFDF91CF91D3
:103FE0001F910895409153025091540260915502DF
:103FF0007091560280915702909158020C94C11F03
:104000000F931F93CF93DF938091580282958F7007
:1040100009F05DC080915502882309F458C0809151
:104020002102109122026091530270915402C091BA
:104030005602D091570291E06F3F09F090E0292F8E
:1040400006E0811709F443C0209721F07F3F21F05B
:1040500030E003C031E001C0322F90E030FD34C0C9
:10406000089FF001099FF00D1124DF01AD5DBD4FE8
:1040700011963C911197371327C03C91361324C0F9
:1040800012963C91129731111FC013964D915C917D
:1040900014974C1B5D0B483C5105B0F480915802BD
:1040A0008F70806180935802E85DFD4F80818F7032
:1040B0008061808383E592E00E943F1FDF91CF9172
:1040C0001F910F910C94D11F01968770BACFDF9189
:1040D000CF911F910F9108959F92AF92BF92CF926F
:1040E000DF92EF92FF920F931F93CF93DF93CDB7A1
:1040F000DEB761970FB6F894DEBF0FBECDBF8C015F
:1041000085E0F801DE011D9601900D928A95E1F798
:10411000F80140815181E2809091530260915402F4
:1041200020915602309157022115310531F06F3F31
:1041300031F481E09F3F19F403C081E001C080E0C9
:10414000F82FF1709F2E80FD46C1F801A380B48046
:1041500083E5C82E82E0D82EF0905502F501E21BCF
:10416000F30BFF2009F4DFC080915802E83CF10511
:1041700008F09BC0282F207F09F052C0561313C0AF
:10418000491311C0FE2CE1100EC08F708061809326
:1041900058020E94F21FC6010E943F1F80915802E0
:1041A000F801858358C1AB2831F05F3F31F481E0DD
:1041B0004F3F19F403C081E001C080E080FD03C0DF
:1041C00081E08E2502C080E090E0F82FF170FF2E94
:1041D00080FF1CC0809121022091220236E08217CC
:1041E00009F417C190E0389FF001399FF00D1124B8
:1041F000ED5DFD4F6181561306C06081461303C01B
:104200006281E61203C001968770E9CFFE2CEE2092
:1042100009F421C1809158028160809358025AC0EC
:10422000561306C0491304C0E11002C0F8019FC034
:104230004D875E878D859E850E94AD1F882379F10D
:10424000EE2069F120915802822F82958F7090E0C4
:10425000029774F0809153029091540298878F8353
:104260001986BB86AA862C87CE0107960E943F1F1F
:1042700086E0F801A3E5B2E001900D928A95E1F79E
:104280000E9400200E94F21F0DC0561729F14D8791
:104290005E878D859E850E94AD1F81112CC0C8014F
:1042A0000E943F1FFF24F394D6C0282F207F69F778
:1042B0007A2DB98AA88A6E2D89890E94B21F83E55A
:1042C00092E00E943F1F86E0F60111928A95E9F77D
:1042D0000E94F21FF12CBFC04913D9CFE110D7CFF4
:1042E000F8018583C8010E943F1F86E0F601119204
:1042F0008A95E9F7B0C0EE2091F220915802822F02
:1043000082958F7090E002970CF4B2CF80915302A7
:10431000909154029A8389831B82BD82AC822E8342
:10432000CE010196A3CFE83CF10508F047C0FE2C72
:10433000EE2009F4B4CF561330C049132EC020919B
:10434000580220FD21C0822F82958F70482F50E0A7
:1043500041155105C9F0F80125834F30510541F051
:104360008F5F982F9295907F822F8F70892B8583F6
:10437000C8010E943F1F86E0F801A3E5B2E001906A
:104380000D928A95E1F742C086E0F801A3E5B2E01C
:1043900001900D928A95E1F75EC04D875E878D850D
:1043A0009E850E94AD1F811163CF8091580281606C
:1043B00080935802C8010E943F1F4DC07A2DB98AD0
:1043C000A88A6E2D89890E94B21F86E0F60111929B
:1043D0008A95E9F71BC0EE2009F461CF4D875E870F
:1043E0008D859E850E94AD1FF82E882309F457CF36
:1043F00086E0F801A3E5B2E001900D928A95E1F71D
:1044000083E592E00E94E51B0E9400200E94F21FBB
:1044100022C04D875E878D859E850E941225292F9B
:1044200022952F70223028F49F7039F0811105C039
:104430000BC0243028F49F7049F4805E883020F04F
:10444000C8010E943F1F9F2CF92C05C0F8019581DF
:10445000907F99F7F9CF8F2D61960FB6F894DEBF54
:104460000FBECDBFDF91CF911F910F91FF90EF90C5
:10447000DF90CF90BF90AF909F9008951F93CF9300
:10448000DF93CDB7DEB72C970FB6F894DEBF0FBE23
:10449000CDBF4F83588769877A878B879C87CE01EA
:1044A00007960E946C208823D1F09F8188852A85F9
:1044B0003B85232B31F08F3F31F481E09F3F19F48E
:1044C00003C081E001C080E080FD47C04F81588576
:1044D00069857A858B859C850E94C11F3EC086E0D8
:1044E000FE013796DE01119601900D928A95E1F753
:1044F000FF81E8856A857B856115710531F0EF3FA5
:1045000031F481E0FF3F19F403C081E001C080E095
:1045100080FD23C02091220230E0C90101968770FE
:1045200099274091210250E084179507F1F1F98312
:10453000EA837D836C8396E0929FD001939FB00DB8
:104540001124AD5DBD4FFE01319601900D929A95FB
:10455000E1F7809322020E94D11F16E08091210290
:1045600090912202891771F1189FC00111248D5D6D
:104570009D4F0E946C20882329F1E09121021E9F0B
:10458000F0011124ED5DFD4F408151816281738105
:10459000848195810E94C11F8091210290E0019643
:1045A0008770992780932102D9CF0E94851F10928E
:1045B000220210922102E3E5F2E086E0DF011D9283
:1045C0008A95E9F72C960FB6F894DEBF0FBECDBFE3
:1045D000DF91CF911F910895EF92FF920F931F9358
:1045E000CF93DF938C01892B09F46CC0F12CEE245E
:1045F000E394E8012196F8018491843740F48430F3
:1046000008F051C0813081F0823019F15BC08537EC
:1046100009F444C0A8F19CE7980F903708F052C005
:104620008F770E94921C41C00E5F1F4FFE01849144
:1046300090E2980F983050F48770FE2D01C0FF0F64
:104640008A95EAF78F2F0E94742514C00E94EB1BF5
:104650002DC00E5F1F4FFE01849190E2980F98309D
:1046600060F48770FE2D01C0FF0F8A95EAF78F2F47
:104670000E947A250E949F2519C00E94921C16C094
:104680000E5F1F4FFE01C491CC2381F08FE99FE0A4
:104690000197F1F700C00000C150F6CF0E5F1F4F29
:1046A000FE01F49003C00E94EB1B8E018F2D882326
:1046B00009F49FCFEFE9FFE03197F1F700C0000068
:1046C0008150F5CFDF91CF911F910F91FF90EF9027
:1046D0000895089508950C946A230C946B230E9406
:1046E0006D2360938A0270938B0280938C02909367
:1046F0008D020C946F1F0C946F230F931F930091E6
:104700008A0210918B0220918C0230918D02602BD5
:10471000712B822B932B1F910F910C946F230F936E
:104720001F9300918A0210918B0220918C0230918C
:104730008D0260237123822393231F910F910C9488
:104740006F230F931F9300918A0210918B02209187
:104750008C0230918D0260277127822793271F9149
:104760000F910C946F230C946A230E94B3236093DF
:1047700086027093870280938802909389020C943A
:104780006F1F60E070E0CB010C94B5230F931F9373
:1047900041E050E060E070E08A019B0104C0000F3E
:1047A000111F221F331F8A95D2F7C901B8011F912B
:1047B0000F910C94B5230F931F9341E050E060E0FC
:1047C00070E004C0440F551F661F771F8A95D2F70B
:1047D0008091860290918702A0918802B09189020F
:1047E0008A019B01082B192B2A2B3B2BC901B801ED
:1047F0001F910F910C94B5230F931F9341E050E04C
:1048000060E070E004C0440F551F661F771F8A9553
:10481000D2F7409550956095709580918602909161
:104820008702A0918802B09189028A019B01082326
:1048300019232A233B23C901B8011F910F910C941E
:10484000B5230F931F9341E050E060E070E004C097
:10485000440F551F661F771F8A95D2F780918602F5
:1048600090918702A0918802B09189028A019B01F0
:10487000082719272A273B27C901B8011F910F9143
:104880000C94B5230F931F93009186021091870219
:104890002091880230918902602B712B822B932BFF
:1048A0001F910F910C94B5230F931F9300918602D3
:1048B0001091870220918802309189026023712330
:1048C000822393231F910F910C94B5230F931F9371
:1048D000009186021091870220918802309189020E
:1048E00060277127822793271F910F910C94B5237E
:1048F00008952EE0929F800D1124E82FE695E6950D
:10490000E695877051E001C0550F8A95EAF785E07A
:10491000E89FF0011124E75AFD4F20E030E070E0FD
:104920004081CB01022E02C0969587950A94E2F74A
:104930008170819584278523842781932F5F3F4F42
:104940002530310569F708952EE0929F800D1124DE
:10495000682F669566956695982F977085E0689F95
:10496000B001112440E050E080E0FB01E40FF51FAE
:10497000E75AFD4F208130E0092E02C03695279579
:104980000A94E2F721703327042E01C0220F0A9403
:10499000EAF7822B4F5F5F4F4530510531F708959D
:1049A000BF92CF92DF92EF92FF920F931F93CF931C
:1049B000DF938C01C0908602D0908702E09088023D
:1049C000F090890280918A0290918B02A0918C02D2
:1049D000B0918D02C82AD92AEA2AFB2ACFE1D0E079
:1049E000D701C6010C2E04C0B695A795979587955B
:1049F0000A94D2F780FD04C0219790F7B12C07C02C
:104A0000BC2EB8018C2F0E94280A0197A9F38B2D88
:104A1000DF91CF911F910F91FF90EF90DF90CF909A
:104A2000BF900895CF93DF93EC010E94D024BE0184
:104A30000E94280ADF91CF9108951F93CF93DF93AF
:104A4000EB0190912002992321F0CB010E941225C5
:104A500013C0882349F0CB010E94D024182F682F5F
:104A6000CE010E94792404C0CB010E94A424182FF7
:104A7000BE01812F0E94280ADF91CF911F910895D6
:104A800080918E02859585958595089580918E02F9
:104A90008770089590918E02977081E009F480E00C
:104AA00008958091B20208959091B202892B80936B
:104AB000B202089580959091B20289238093B20248
:104AC00008951092B20208959091B102892B8093BB
:104AD000B102089580959091B10289238093B1022B
:104AE00008951092B10208959091B002892B80939D
:104AF000B002089580959091B00289238093B0020E
:104B000008951092B002089580918F02089508953B
:104B10000C9487250C94882590918F02981721F08A
:104B200080938F020C948A25089580918F028823A8
:104B300029F010928F0280E00C948A250895E0916C
:104B40001601F09117018091B2028083E091160165
:104B5000F091170190818091B102892B8083E091BF
:104B60001601F091170190818091B002892B80830A
:104B700080918F02882381F0E0911601F091170156
:104B80009081892B808380911601909117010E945A
:104B9000E22681110E9495258091160190911701BE
:104BA0000C94361A0C94872598E0899F9001112463
:104BB000262B20938E020E94DB2380918E02859506
:104BC000859585950C94D22510928E0280E00C94E8
:104BD000D22520918E028095822380938E02982F79
:104BE000977079F430E0482F082E000C550B2417ED
:104BF000350739F08595859585950E94FC230C94A1
:104C0000E42508959093D3018093D201089582956D
:104C1000982F937344E0949F900111248C7C869587
:104C20008695282B822F8575880F2A7A2695822BC8
:104C30000895CF93DF93D92F0E940726C82F8D2F79
:104C40000E9407262C2F30E0322F2227A901482B63
:104C5000CA01DF91CF9108956FEF7FEF80E090E080
:104C60000C94BB3480E090E00E94973421E08C3EAD
:104C70009E4F09F020E0822F089582E090E00C948E
:104C8000893483E090E00C948934CF9384E090E001
:104C90000E948934C82F81E290E00E9489342C2F31
:104CA00030E0A901582BCA01CF910895CF93C92FA5
:104CB000682F84E090E00E949D346C2F81E290E0A8
:104CC000CF910C949D3486E090E00C948934682F49
:104CD00086E090E00C949D34AB01BC018FE090E045
:104CE0000C94AF34AB01BC0183E190E00C94AF3481
:104CF00060E070E0CB010C94722660E070E0CB01C4
:104D00000E946C260C9478266CEE7EEF80E090E09A
:104D10000E94BB3460E082E090E00E949D3460E03D
:104D200083E090E00E949D3410928A0210928B02E0
:104D300010928C0210928D0260E084E090E00E945C
:104D40009D3460E081E290E00E949D3460E085E067
:104D500090E00E949D3460E086E090E00E949D34E7
:104D60006FEF87E090E00E949D3440E050E0BA0190
:104D700088E090E00E94AF3460E08DE090E00E9417
:104D80009D3440E050E0BA0188E190E00E94AF34E9
:104D900060E087E190E00E949D3440E050E0BA017D
:104DA0008CE190E00E94AF3460E080E290E00E94ED
:104DB0009D340C947D260C948426682F8EE090E020
:104DC0000C949D34FC01329680912201882331F0AD
:104DD0008091120387FF02C09EE101C096E080E04F
:104DE000915028F021912223D9F38F5FF9CF0895B4
:104DF000662351F1209122012223E9F02091120330
:104E000027FF19C0462F4695469546954E31E0F44A
:104E1000677021E030E002C0220F331F6A95E2F78D
:104E2000FC01E40FF11D828190E02823392381E009
:104E3000232B69F409C0FC01329608962191621770
:104E400029F0E817F907D1F780E0089581E0089587
:104E50009C01FC0132969FEF80E04191461789F05A
:104E60009F3F19F4411101C0982F8F5F8630A9F739
:104E70009F3F39F0F901E90FF11D97FDFA95628323
:104E8000089508959C012A5F3F4FFC01428146131B
:104E900001C01282019682179307B9F70895262F51
:104EA0002695269526952E3170F4FC01E20FF11D12
:104EB000677021E030E001C0220F6A95EAF7828135
:104EC000282B228308958091B30280FF0CC01F928B
:104ED0006F938DEC98E09F938F930E9411090F9030
:104EE0000F900F900F900895262F269526952695C2
:104EF0002E3178F4FC01E20FF11D677021E030E003
:104F000001C0220F6A95EAF7209582812823228327
:104F100008958091B30280FF0CC01F926F938FEAB7
:104F200098E09F938F930E9411090F900F900F901C
:104F30000F90089520912201222329F0209112033D
:104F400027FD0C944F270C9428272091220122231F
:104F500029F02091120327FD0C9474270C9442270A
:104F600020912201FC013296222331F0809112031C
:104F700087FF02C08EE101C086E0DF011D928A95A5
:104F8000E9F7089508950C94C2270C94C227CF9393
:104F90000E94C5270E94BC0C0E94C327C0E08C2F32
:104FA0000E94110C892B29F4CF5FC530C1F780E036
:104FB00001C081E0CF9108950C94C2270C94DC27A6
:104FC0000E94DE2780911803843061F11092B402B0
:104FD00020E488E190E00FB6F894A89580936000F3
:104FE0000FBE2093600080E00E94771780E00E944F
:104FF0008A090E94DE2783B7817F846083BF83B7DD
:10500000816083BF7894889583B78E7F83BF0FB606
:10501000F894A89580916000886180936000109258
:1050200060000FBE08950C94C2270E94851F0E9445
:10503000FC150E942A1A0E948A090C9413281F92B8
:105040000F920FB60F9211248F939F93AF93BF933C
:105050008091B402811113C080910E0390910F03CF
:10506000A0911003B09111034196A11DB11D809331
:105070000E0390930F03A0931003B0931103BF91FD
:10508000AF919F918F910F900FBE0F901F90189529
:1050900082E084BD93E095BD9AEF97BD80936E004A
:1050A00008952FB7F89480910E0390910F03A0916B
:1050B0001003B09111032FBF08952FB7F89460919A
:1050C0000E0370910F0380911003909111032FBF75
:1050D00008959C014FB7F89480910E0390910F03AF
:1050E000A0911003B09111034FBF821B930B089541
:1050F00078941F920F920FB60F9211248F939F9363
:10510000AF93BF9380910E0390910F03A091100372
:10511000B09111030196A11DB11D80930E039093D0
:105120000F03A0931003B0931103BF91AF919F9110
:105130008F910F900FBE0F901F90189581E0809374
:10514000E00080E28093D8001092C9008FE19EE4D5
:105150000197F1F700C0000087E090EBDC0180933D
:10516000210390932203A0932303B09324039CE094
:1051700088E10FB6F894A895809360000FBE9093D5
:105180006000FFCF0C942C260E94BC0C8FE39CE99E
:105190000197F1F700C000000E94BC0C80E00E9463
:1051A000110C80FF04C00E94C2280C949E28089510
:1051B0000E943226811102C00E94DB260E943D26F9
:1051C0008093B3020E9445269093130380931203A9
:1051D0000E944126682F70E080E090E00C947B23D1
:1051E000CF93C82F1F928F9381EF98E09F938F9357
:1051F0000E94110981E090E0A0E0B0E0BC01CD0187
:1052000004C0660F771F881F991FCA95D2F70E94A6
:105210007B230F900F900F900F90CF910C94851FD0
:10522000CF93DF93482F50E0FA013597EF33F10524
:1052300008F094C2E857FF4F0C94003486EA9EE0D1
:105240000E94780882EE9DE00E9478080E94412624
:105250001F928F938FED9DE09F938F930E94110972
:105260008DED9DE00E9478080E943D26C82F8AECB3
:105270009DE00E9478081F92CF9385EC9DE09F935C
:105280008F930E94110983EC9DE00E94780889EBBE
:105290009DE00E9478088C2F81701F928F9386EB7F
:1052A0009DE09F938F930E94110984EB9DE00E94E3
:1052B00078088AEA9DE00E947808C1FB882780F977
:1052C0001F928F9387EA9DE09F938F930E9411090D
:1052D00085EA9DE00E94780889E99DE00E947808AF
:1052E000C2FB882780F91F928F9386E99DE09F93E8
:1052F0008F930E94110984E99DE00E9478088BE851
:105300009DE00E947808C3FBCC27C0F91F92CF9381
:1053100088E89DE09F938F930E94110986E89DE0A5
:105320000E9478080E944526EC0182E79DE00E94D9
:105330007808DF93CF938DE69DE09F938F930E9433
:1053400011098BE69DE00E94780882E59DE00E94AD
:1053500078088C2F81701F928F938FE49DE09F932C
:105360008F930E9411098DB79EB780960FB6F8945F
:105370009EBF0FBE8DBF8DE49DE00E94780886E33E
:105380009DE00E947808C1FB882780F91F928F93C7
:1053900083E39DE09F938F930E94110981E39DE039
:1053A0000E9478088FE19DE00E9478088D2F81701F
:1053B0001F928F938CE19DE09F938F930E94110920
:1053C0008AE19DE00E94780888E09DE00E947808CC
:1053D000D695D1701F92DF9385E09DE09F938F93C8
:1053E0000E94110983E09DE00E94780881EF9CE013
:1053F0000E947808C2FB882780F91F928F938EEE57
:105400009CE09F938F930E9411098CEE9CE00E9478
:1054100078088AED9CE00E947808C3FB882780F911
:105420001F928F9387ED9CE09F938F930E941109A9
:1054300085ED9CE00E9478088BEC9CE00E94780847
:10544000C4FB882780F91F928F9388EC9CE09F9380
:105450008F930E94110986EC9CE00E94780884EBEF
:105460009CE00E947808C5FB882780F91F928F93E3
:1054700081EB9CE09F938F930E9411098FEA9CE03F
:105480000E94780883E99CE00E947808C6FB882780
:1054900080F91F928F9380E99CE09F938F930E94E5
:1054A00011098DB79EB780960FB6F8949EBF0FBEB8
:1054B0008DBF8EE89CE00E94780886E89CE00E9400
:1054C0007808C7FBCC27C0F91F92CF9383E89CE0F4
:1054D0009F938F930E94110981E89CE00E947808B5
:1054E0000E946326C82F8AE69CE00E9478081F92DB
:1054F000CF9385E69CE09F938F930E94110983E6EA
:105500009CE00E94780889E59CE00E9478088C2F36
:1055100081701F928F9386E59CE09F938F930E94EA
:10552000110984E59CE00E9478088BE49CE00E94CD
:105530007808C695C695C6951F92CF9388E49CE0DF
:105540009F938F930E94110986E49CE00E94780843
:105550008DB79EB740960FB6F8949EBF0FBE8DBF15
:1055600006C085E99EE00E9478080E94DB26C1E023
:10557000FAC084E99AE074C08091B302817F8E7F83
:105580008093B30289E79AE00E94780881E99EE05F
:105590000E94780881E08093B502E9CF85E79EE01C
:1055A0000E9478080E949409E2CF8091B302C82F2C
:1055B000C095C170C0FB80F98093B302CC2319F071
:1055C00089E69EE0BDC08CE59EE00E94780880914F
:1055D000B302897F877F8093B302C9CF9091B302D2
:1055E00091FBCC27C0F981E0C827892FC0FB81F946
:1055F0008093B302CC2319F08FE49EE027C081E4AE
:105600009EE02EC09091B30292FBCC27C0F981E0BE
:10561000C827892FC0FB82F98093B302CC2319F0ED
:1056200082E39EE013C082E29EE01AC09091B30232
:1056300093FBCC27C0F981E0C827892FC0FB83F9F1
:105640008093B302CC2351F086E19EE00E9478085B
:105650008091B30281608093B30285C089E09EE0AF
:105660000E94780884CF8AE69AE00E94780884E352
:105670009AE00E9478088CEF99E00E94780884ED07
:1056800099E00E94780882EA99E00E94780887E70A
:1056900099E0E6CF89E699E00E9478080E942A1AEC
:1056A0001F928F938FE499E09F938F930E9411092B
:1056B000809122011F928F9388E399E09F938F93AB
:1056C0000E9411098091DA021F928F9385E299E07E
:1056D0009F938F930E9411098091120387FB882763
:1056E00080F91F928F938DE099E09F938F930E9492
:1056F00011090E945D289F938F937F936F9386EF8C
:1057000098E09F938F930E9411098DB79EB746969C
:105710000FB6F8949EBF0FBE8DBF29CF0E94851F84
:105720009091120397FBCC27C0F981E0C827892FFD
:10573000C0FB87F980931203CC2329F08FEF9DE003
:105740000E94780810C084EF9DE08ACF895303C07F
:105750008D5101C080E00E94F02809CF82EF9DE0CA
:105760000E947808C0E08C2FDF91CF91089580E0EF
:1057700008950C94B72BCF93C82F8091B50288233E
:1057800019F0813031F038C00E9451258232B1F5D4
:1057900004C00E945125823261F48C2F0E94B92BE3
:1057A000811104C08C2F0E94102924C081E090E058
:1057B00021C08C2F0E94B72B81111BC0C43189F0EE
:1057C00018F4CB3029F010C0C93259F0C83361F455
:1057D00089E79AE00E9478088DEE98E00E947808A8
:1057E00008C01092B5020CC08BEE98E00E947808B9
:1057F00007C081E0817006C01092B50280E002C04F
:1058000080E0F8CFCF9108958091D902089508954E
:105810009FB7F8941092B8029FBF909118039430EC
:1058200009F057C09091E9009F703091EC00232F50
:10583000217030FD20E8922B23E02093E900209195
:10584000EB0020FF43C02091EE0027FF3FC02091D6
:10585000B602222321F02091E80025FF37C01092E4
:10586000B60226E03091E80035FD15C030911803EE
:10587000343061F53091EB0035FD28C0215021F422
:1058800081E08093B60222C0EFE9FFE03197F1F7A3
:1058900000C00000E7CF8093F1008091E80085FD13
:1058A0000AC08091E80080FFFCCF8091E8008E77ED
:1058B0008093E80006C08FB7F89421E02093B802E7
:1058C0008FBF9F709093E90080E008959F70909340
:1058D000E9008FEF0895CF93DF9300D01F92CDB7EB
:1058E000DEB790911803943019F589837B836A831E
:1058F00082E08093E9008FEF9091E800815095FD60
:1059000006C095ED9A95F1F700008111F5CF8091D1
:10591000E80085FF0DC040E050E063E070E0CE019C
:1059200001960E94FD2E8091E8008E778093E8001A
:105930000F900F900F90DF91CF910895CF93DF9349
:10594000EC010E94E02E823011F0843031F4BE016F
:1059500084E0DF91CF910C946B2CDF91CF9108956F
:10596000BC0183E00C946B2CCF93DF93EC010E947D
:10597000E02E823011F08430D9F580912201882305
:1059800039F08091120387FF03C060E282E002C019
:1059900068E081E08093E9008FEF9091E80081500A
:1059A00095FD06C095ED9A95F1F700008111F5CFB0
:1059B0008091E80085FF1CC080912201811105C003
:1059C00040E050E068E070E003C070E040E050E08C
:1059D000CE010E94FD2E8091E8008E778093E80032
:1059E00080E2FE01A9EBB2E001900D928A95E1F709
:1059F000DF91CF91089586ED9EE00E947808809116
:105A00001703811109C00E948E300E94EB308091F3
:105A1000E20084608093E200089582ED9EE00E949F
:105A200078081092170308958EEC9EE00C94780885
:105A30008AEC9EE00C94780886EC9EE00E94780840
:105A40000C9415282091B7022F5F822F62E30E94E9
:105A5000AA33992319F02093B70208951092B70240
:105A60008091B802882371F180911803843041F548
:105A70008091E9008F702091EC00922F917020FDB1
:105A800090E8892B93E09093E9009091EB0090FFD0
:105A900014C09091EE0097FF10C09091E80095FF20
:105AA00003C01092F100F9CF9091E80090FF05C07B
:105AB0009091E8009E779093E8008F708093E900C2
:105AC0001092B802089542E061EC81E00E94073034
:105AD00042E261EC82E00E94073042E261EC83E046
